:100000000C9491080C94B9080C94B9080C94B90894
:100010000C94B9080C94B9080C94B9080C94B9085C
:100020000C94B9080C94B9080C94B9080C94B9084C
:100030000C94B9080C94B9080C94B9080C94B9083C
:100040000C94420C0C94B9080C94100C0C94EA0B10
:100050000C94B9080C94B9080C94B9080C94B9081C
:100060000C94B9080C94B908000000002500280081
:100070002B0000000008000201000003040700003C
:1000800000000000000000000000240027002A00FB
:10009000010204081020408001020408102001021F
:1000A00004081020040404040404040402020202EC
:1000B0000202030303030303556E657870656374DE
:1000C00065642063686970206966206F66203078F7
:1000D00025303258203D20257338253032582C20C9
:1000E000636F646520636F6D70696C656420666F13
:1000F0007220257338253032580A004973207468FD
:10010000652064657669636520636F6E6E656374F0
:1001100065643F204973207468652072696768745C
:1001200020455645206465766963652073656C6576
:10013000637465643F0041667465722025642074B1
:10014000726965732C2068617665206E6F74207209
:1001500065636569766564204556455F5245475F2E
:100160004350555245534554206F66203078303007
:100170002E204C6173742072656365697665642016
:10018000776173203078253032580A004973207423
:1001900068652064657669636520636F6E6E65636C
:1001A0007465643F204973207468652072696768CC
:1001B0007420455645206465766963652073656CD7
:1001C00065637465643F0041667465722025642030
:1001D00074726965732C2068617665206E6F742077
:1001E0007265636569766564204944206F662030D6
:1001F0007837432E204C617374207265636569768D
:10020000656420776173203078253032580A0025E4
:1002100073382530325820696E697469616C697A67
:1002200065642E0A00426567696E0A00789CED9A43
:100230005992A4300C448FC6D589A80B718489E9E2
:10024000EE024B4A49B6F18671FE0C7853EA21431F
:1002500041CFB62D2D2D2D2D2D2D55D0BEEFBD2DE1
:100260004CA7FD57BD6D0CAC74368BA9A37436FB3F
:10027000626A2B830D44BA389FCAE180F0ED978AF9
:10028000797BA8722020763B514183CF5316021709
:10029000E9620A11588056999AB2A96144A07995E9
:1002A00069200862E78273B4A6B723854C0552FC27
:1002B0008407AB34323DB2146E0E53D6B6B67C28EA
:1002C000851B3907B854A48BA9C7149EA9FD8BEAD6
:1002D000AF300B93F0C62B77E76AE47D18EDF8C6D4
:1002E0006892D09882455EC71464FDFFF03653468D
:1002F000B582F351A5E66DA24053F496773135F6F9
:10030000A782429F612EF15EA41E53313E6AEBE349
:10031000B0855319450651EB9D08CF89295CBE4A2B
:10032000F9947A8B64A6E52E87FF352B4C95E5E191
:1003300022F35175B2D299E2FEA83235EA7C0A392D
:100340003929CCD8CF4FB53BE293FF84509D8C9C8C
:100350003ACC2953847402A806043EF21E53408C02
:10036000739C04AA84B207C77CA8018DF3107C2C6F
:10037000A4EAA4070A26A46D44139286878F864CAC
:10038000F518CF9392B602D5A2A4961C1CCDC21923
:10039000961E272D6D056ADC706534E087903EBEA1
:1003A00050F5CAB128EDE73DD81AAD5D002BBCDA97
:1003B000F8206532BDDA484B1453197D76A651A555
:1003C000879B36762B54AE871D7D8607BFE3DF679C
:1003D000AA96955FA6736E7DFF21AB145B54D25E27
:1003E000999A6FFFD1198CA738A6FC3C2367831F0D
:1003F0006A035FC452233695BCA5E9435171E507F2
:10040000F699EA4847868AEA8E0FA1BDF5B211CB6C
:10041000E36D30FAFD80B95332083B2BE6C2D7B703
:10042000910E0A55B8D32BA545263484127270A4B8
:10043000D29F5A296D3201E19E86543AF499B6F260
:10044000E3221D172DF3267CB64E2019E94054E512
:10045000BB50784A0636366F01834847811A3841C7
:10046000852A07B7341E859434B4F3A68B18213639
:10047000C7F0085121D20341C5C6C4A7A4A1848BEB
:100480007718A8DAD5DE0766AADC0F86651A401D44
:10049000C4A190827434A6B2E584DACB982A85E8A8
:1004A000284C777E3BFD6D25EAE34C978BB4AFE398
:1004B0006F2D82F661A18E8F1433DDC665EA23EDC0
:1004C000EAD772312C53E5A639885DDBC620269128
:1004D000C645EAED96515C028D8BD4A3368A4DA0B9
:1004E00038A4D7778066C65C6AE332A5D288EED797
:1004F000BB60BB24BC4A7C06530329535B3B667735
:10050000132BD9D290F521BAB93B637CA606B3066A
:1005100044EDB8C69C9199F644AAAEFE6CA6B148CB
:100520002BC74E81DAF8469423C57ECB22D5A31B78
:10053000132B582A27AB4EEA417596D7E3D6DC3900
:1005400005E514699514BCD5B59E8720E502448B5A
:1005500027E1AE8DBB2A6E9CAAE2D9D648210CA019
:10056000AC6E432DECA7AE40FD54BC9BC61841AD0C
:10057000C50DD554C5ED0EA2640C7A1CD1561FD200
:10058000E3222850ABB9AAA336446DA443FEAF982A
:100590001B729096CACE8C21FEF349A1A0BD6411B6
:1005A0002D985F74940990BAC916CAD08B129E1602
:1005B00009D853CEA6ACCE54EC93E7236D54A8FAD9
:1005C0004A733C9598DC1B6A897C1BDD6186910F20
:1005D000B55890D4F0CF9591D22AD45C1909954A98
:1005E000F8754C7F85532BCBD4784ADD0E319E763F
:1005F0002ADE5E6A79BDEB6E8401B5436D0DA0CE37
:10060000CB54812A0BF7EEF25ACFDD0023CA615A90
:100610000FEAC44C6B437598DE5C7D54B52AD4E771
:10062000FF69245E6176350B95AC54EA8A8D2A3DCC
:10063000E3C2853ADB877D4B5A8285929657A8D8CC
:10064000F51A57B513447794C99176835A2DDE1065
:10065000EA03B55AB821543FC9D721ED01B562A8C4
:1006600051D420D3B7216DF45EF326A2DBE4EFDF93
:10067000BD341BD1E3B8D7BF24741C3634AF7F49D7
:10068000E8386C685EFF92D071D8D0BCFE25AE23EE
:10069000504EFF92D071D8D0BCFE25A1E3B0A17915
:1006A000FD4B42172A0CCDEB5FE222D5074AD1EB76
:1006B0005F1262940434AF7F494832A2E71EE325FB
:1006C00021040821F5E62C9DD29E495EFF82AAC92D
:1006D000DBC66AFFDAFF9AB2912EA89A3C2C76FF0D
:1006E000820A74A34A63A6BF50C76143F1FAFD01B1
:1006F000AFD3E120F1FAD7872AA1C321E2F5C70DD4
:1007000079950E0788D71F3B66087D7E1433E60374
:10071000DA2257380E9B87D79F320A78373389C839
:100720003F4D9F5331633EA2951EA91A8429C824C8
:1007300022FF447D3E204CDC9887300DBD814CFC6F
:10074000F453F50151EC311FD64E8F5475634ABCFA
:100750007D8FAFB6989A4A13C30517E563D8A611E3
:10076000BEB17A319535498F24E5BBBA22EA508370
:100770009E19986EF49050F6974B0BE83095C77F12
:10078000E7E208AB1353BAB7245340F9A62C5C68D0
:10079000CCE398FEB86DCB740B58443165B71DE8B7
:1007A000364FE9BB3A463FAE58DD90A32A4CC3F022
:1007B000394CC551A6AA30FD30A6F289549569D4AA
:1007C000ED14DC2DD851B66A3095B5287E8DD664EF
:1007D000FAF9685C54A64591D662FAF70FFF516D9D
:1007E000DC614B89C6417DE8CCDBF91C93263838A7
:1007F0006501E532805A6C57A71652F0A3F93AB951
:10080000C6A0999D995ADC3EE1011F5F441652F043
:100810009B3F36F4004C436DE87655BD4ECD4265A6
:10082000F6223426D3A017B61492036B31CD54129E
:10083000D4B8256F332D9291CDB4FCFBBEB4E0D873
:100840008BF95A72AA3353E23EC8831E85B88B33A4
:10085000B5717D3B9FCD1410CCD87F89A1DD656734
:10086000604A09D6443A20D3D8059CCB103A0604F6
:100870004B23956B474C880D3E2253F8302E4D3458
:100880008629B821C56814A64D452F99C654DE7C2B
:1008900022977F25D3385C21F9C5D45580CBA8D9C0
:1008A000AB2BED5E7E9BE933F561A2EDCE204F03CD
:1008B00032A5DBB25E0C97E986C7B81A90A97C25F1
:1008C000AD1403E03298C6AFFD56A6CA6B04449C33
:1008D0008874CC67D46F0E55917EC3B0101EE42887
:1008E0000DC934F1BBFA685A4CCB6B4CA6595B6E00
:1008F000180DCAB4FECDB4A26E33ADA4C5B4B8DE33
:10090000BDF7ABA8F633EAA348EFF366851A9B69F7
:100910002DA883338D5D20E532FC1A5D4C0B320D22
:1009200073280411447815D3CB6635A88B6945012B
:10093000289853CA90F1988676AB431D93E9B3B5D6
:100940009896D7625A5E8B69798DC9347601FB32ED
:10095000308FF2478AF2B3E5AEDEC354FCF4337E47
:100960000CDED3C44C89C7CF8723942DA5A432FDB8
:1009700058319FC0947A54986E0C7D114DCB14EC75
:100980007372245B8AA90AD32445155DAAB87179CC
:10099000883B0B06C77E9ECB54185F4C6FEBD71E6F
:1009A000F6D89169EAAC6C5562BA69AC02A6ADEFB3
:1009B000A7A9B35479CCE298A691BF6041EB570E3A
:1009C0005B05A49332BD5C42E76112E591BE8D29BF
:1009D000F15D09E9CB9812DFAB4E4B301548CFC61D
:1009E000B85422F526A6B24AD95121BD8829F50C62
:1009F0002AB694DEC3F4234FE1B8FBAACF94F348A0
:100A0000EF8F1D835C52CBB8F3894C378F472AD3C5
:100A1000C8B0DA5E3FCF1F7B3FFD2F0F481AD3D8F7
:100A2000A8A1C70FD1D9B25540DAEA7DDF2392C21F
:100A3000343A6804D3B0A1981A310DA0E4F5A71395
:100A400015B74C8EB016D286F2A0C4314D89E8306D
:100A5000E57F0B78A26E546A4E95BE43D95017526B
:100A60004398CD75AEF52FA286109EB041ED5F483C
:100A700075C96D4CCF45FFDAF7BE18238FE1421AD6
:100A800023420920F3FA97902E4EDE3369118DD65A
:100A9000C194DABF04E4215B4833E4215B4873E48A
:100AA000115B4433E4215B4833E4215B4833E421A8
:100AB0005B489796963274FB2197B5403887FF1EA6
:100AC00024EB891F8B741E59303C81E6C48CD0B650
:100AD0009E851AE83C662F0A67D430A7BF7F614A1B
:100AE000DC510653BA681E53B8041BE30D92DFFDB8
:100AF0008C37ABF08477184CCFB1273E32F4DB480B
:100B0000A1A433658B26310D27913346721383E8F8
:100B10000CC034AC6FEA965CC9F32438964C598CFF
:100B2000F31F3618206557211E6978C066FF3FBD48
:100B30009A642733798013E60B0C52C28044C01AA2
:100B4000703D78A431654B0328E94CCF2330FB2658
:100B50005352D5E11A25981AEBE94CC960D62B1BE4
:100B6000B79C3A158313985E5D1653B46241A61C78
:100B70005309A632F06DA662BF325757A77E67FBB6
:100B8000368910680608A32482D0C9ABAA1C9D1719
:100B9000EE1B8EA404CB54C564E906537245C51CF4
:100BA00041883220330A30BD6E3522B107313D72A3
:100BB00098D2A40B300D9BC21535A6C15D06CEABF5
:100BC000C5949C00C4207A08D8611A1E711EE0AA40
:100BD00010509076B088BFF711533A064169C4149B
:100BE000F123FE105391E839E33E531C401AF92ECD
:100BF000C877E2B5F5EF3225B1915D9D69D015C991
:100C0000F4384665FAB526F2041BD4579808AF7B32
:100C100005C1393C91A906470B0312510389292AC2
:100C2000D30D3225F703012591292F9258A6C2260C
:100C300033A0E7B4F11972286BE60179D44DAE9474
:100C4000C3F46AB4366894F4D9D14C37BEC4752263
:100C5000C70499917AD3968366C5099F4216A571F8
:100C60007E4ED12EDAC8F4705E2A533A07DA62BBA0
:100C70006DDBE4109E90BC32ECD26F8165B99E9E14
:100C8000058F030D984C093E8569082587E9E4BA6C
:100C90008D64315DEAADBD6BF0BD6BF84AEA99D564
:100CA000BE4FC9B4635AFB9FFA44AFA77E59ED9774
:100CB0007A84AFA76E59ED44CDC3D754A7A4F67D6F
:100CC0005EA65D72E240A722DA05E9DC447B209D46
:100CD0009C6807A4B3136D8F7476A0ED918A1A9D5A
:100CE0008F6AE3B410D1D9A836CD4A033A17D49607
:100CF0004969182783DAB052ACBA9C096AD3ED6708
:100D0000C49AA8521BDFD38C48D3301548DB31C5B9
:100D10005D75C337D1956043A81B0C33CBE60F3804
:100D2000B6AAD46F28CD4BF5E89545287666DA2C1F
:100D30007A6D91349A41D59F50B3216D0715C468DF
:100D4000B7492A8B67D19429F8C1FF7CA6208B462E
:100D500099F120FB6C4871BDB489BD119E4F47AA23
:100D6000E4D128BB5D51D5A0B5A5E6D1B85031D2AC
:100D70004702362AA32354D153D74251D9AE7B41DF
:100D8000853D753D9493E3B8553E0AD1ED81507D84
:100D9000BFEDF2D1023D0C6A8CD9FEF93C096A9C88
:100DA000D54EF98411C35FAE4D4D242BF6EAF760A2
:100DB0008A623E00AA4E54FB48D4E7BFA5F0D6662F
:100DC0002632A491B29E12ADADD1A0C317AA56A6E9
:100DD0000AE68E4C9FF2577FBCB954DB6D9972A422
:100DE000EC9DAA8D8954FD79D3EE582AD4A6F6E855
:100DF00077AA6DEC27BF5205FE5F861BFB6367AACF
:100E0000B7EE92FB4AFE010AD96E980BF7A0964006
:100E10002B43B69839E2D222BA35CD80BBD0775574
:100E20003B4F9AC4F50E6C9A45DAC7A76CE1487B34
:100E30007B853B48546C6F973FE24EB42AEDEC172C
:100E40000195CD6320D59E52D8786F8FD2C6904839
:100E5000D53F500D83D4C43622D1CDFB031541DAE2
:100E6000C1B9658D773735E6280E691FEF5EF83119
:100E700089FE48738D90F6868ABB5B7A8A16348D1C
:100E800099F6F8BABBC9DF28BC7F3815435A38BB7E
:100E900020E07399A236F24EED2C52DE17B7236391
:100EA0000E0E55B6ECF406EBCCAF98DBF3988AEF58
:100EB00061917B9D8DAE644E0F91E4B2B9EE206DD1
:100EC000522E38C4D04C89129036FB88FD70A6296A
:100ED0004843353115D73C9A5448F8137AA37BDA46
:100EE000A399EA48F58CCA65A5AEA6753C01AA0E81
:100EF00009B4EE54B77FF35BD76806A6511D3BD407
:100F0000DDD07099145BC3C9F14E3B0B327596F17D
:100F1000AE755ED066F29006FDB431363D34CEBB80
:100F2000360F67EA3DE1AF14084DC8EA6A383B2145
:100F3000B5B0C984AA3ABB97721FA1120A4F21D338
:100F40006042885F50C3EBA2F88AAFA2A9B694852D
:100F500034388713762C3C3385698D2F624D95C9C3
:100F6000745399EEE644101A166AB904BBC8402AB5
:100F700048840318C6924C0B65D6531CA9CAD4806A
:100F8000C810095A889FC67426C9C2C1D4763C3A93
:100F900068D0BA5EC714E44D5A1818EB0AA0725E06
:100FA0004C4913EA3747EF9ABC809309656840CCF7
:100FB000611A11712E394C79B73A1A33B542164F6E
:100FC000651419BB33ECCE61EAC52C9AC7488A6414
:100FD000CAC78325367005CC988532184E18828092
:100FE000648E974CD1524EDB44B299CA5E9B69D451
:100FF0007BD4F35FEC1DE1DDCA9882F14A531CD328
:10100000D9B55FE28D1E40DA04BB5F89D4626AEC19
:1010100073F56E609DBD47089D8BD465AAAEF01236
:1010200019E83810D9AC9DBF1BE97FE94CC538A53C
:101030002ED1905723E58A614ADF9B94310BE92931
:101040009508D8D931D5BC64BC634621FD0E6CE14E
:10105000F4317291C67E2C59FA4A6785EEA40B6969
:10106000849C1DFDED5844A3147E3671992E45C90C
:10107000BD4B2EA6A98A45BA98C6CB7D962FA4C98A
:10108000729FE58B69BABC9F478B69964C688B69E8
:1010900071AD4754792DA6E5B5902E2D2D3D47FF16
:1010A000001B06168E496E697469616C697A6174F9
:1010B000696F6E20636F6D706C6574652C20656E52
:1010C000746572696E67206D61696E206C6F6F70F8
:1010D0002E0A002020646F6E652E0A00496E697426
:1010E00069616C697A655F4C6F676F5F44656D6FAE
:1010F0002829202E202E202E0020646F6E652E0AB7
:1011000000496E697469616C697A655F426F756EDA
:1011100063655F44656D6F2829202E202E202E00E8
:10112000421511241FBECFEFD8E0DEBFCDBF11E0C6
:10113000A0E0B1E0EEE9F1E302C005900D92A83124
:10114000B107D9F721E0A8E1B1E001C01D92AC3EA2
:10115000B207E1F718E0C1E9D8E004C02197FE0129
:101160000E94AD18C039D107C9F70E948C0C0C94AD
:10117000CD180C940000AF92BF92CF92DF92EF9205
:10118000FF920F931F93CF93DF936C017B018B0131
:10119000040F151FEB015E01AE18BF08C017D10781
:1011A00059F06991D601ED91FC910190F081E02D0B
:1011B000C6010995892B79F7C501DF91CF911F9160
:1011C0000F91FF90EF90DF90CF90BF90AF90089578
:1011D000FC01538D448D252F30E0842F90E0821B3D
:1011E000930B541710F0CF96089501970895FC01C2
:1011F000918D828D981761F0A28DAE0FBF2FB11D1A
:101200005D968C91928D9F5F9F73928F90E0089571
:101210008FEF9FEF0895FC01918D828D981731F02B
:10122000828DE80FF11D858D90E008958FEF9FEF7F
:101230000895FC01918D228D892F90E0805C9F4F55
:10124000821B91098F739927089582E291E00E9491
:10125000190921E0892B09F420E0822F089580E00C
:1012600090E0892B29F00E94250981110C9400003F
:101270000895FC01A48DA80FB92FB11DA35ABF4F2B
:101280002C91848D90E001968F739927848FA68985
:10129000B7892C93A089B1898C91837080648C93D9
:1012A000938D848D981306C00288F389E02D808188
:1012B0008F7D80830895EF92FF920F931F93CF93BA
:1012C000DF93EC0181E0888F9B8D8C8D98131AC081
:1012D000E889F989808185FF15C09FB7F894EE8968
:1012E000FF896083E889F9898081837080648083C5
:1012F0009FBF81E090E0DF91CF911F910F91FF9010
:10130000EF900895F62E0B8D10E00F5F1F4F0F73B7
:101310001127E02E8C8D8E110CC00FB607FCFACF72
:10132000E889F989808185FFF5CFCE010E943909CE
:10133000F1CFEB8DEC0FFD2FF11DE35AFF4FF08243
:101340009FB7F8940B8FEA89FB8980818062CFCFA9
:10135000CF93DF93EC01888D8823B9F0AA89BB89EC
:10136000E889F9898C9185FD03C0808186FD0DC0D7
:101370000FB607FCF7CF8C9185FFF2CF808185FFF8
:10138000EDCFCE010E943909E9CFDF91CF910895C9
:10139000CF93DF9390E0FC01E057FF4F24918C55F1
:1013A0009F4FFC0184918823D1F090E0880F991F12
:1013B000FC01EA57FF4FA591B491FC01E859FF4F9A
:1013C000C591D491623071F49FB7F8943C91822F0B
:1013D000809583238C93E8812E2B28839FBFDF91F8
:1013E000CF9108958FB7F894EC912E2B2C938FBF4B
:1013F000F6CF3FB7F89480911D0190911E01A09106
:101400001F01B091200126B5A89B05C02F3F19F000
:101410000196A11DB11D3FBFBA2FA92F982F882774
:10142000BC01CD01620F711D811D911D42E0660F4F
:10143000771F881F991F4A95D1F708958F929F9221
:10144000AF92BF92CF92DF92EF92FF924B015C017D
:101450000E94F9096B017C010E94F9096C197D0950
:101460008E099F09683E734081059105A8F321E02C
:10147000821A9108A108B10888EEC80E83E0D81E30
:10148000E11CF11C81149104A104B10429F7FF901F
:10149000EF90DF90CF90BF90AF909F908F90089586
:1014A0008EBD00000DB407FEFDCF8EB508951F93CD
:1014B000CF93DF93172FD82FC92F862F0E94500A62
:1014C000812F0E94500A8D2F0E94500A8C2FDF918D
:1014D000CF911F910C94500ACF93DF93EB01299881
:1014E000842B0E94500A8D2F0E94500A8C2FDF916E
:1014F000CF910C94500A8F929F92AF92BF92CF924D
:10150000DF92EF92FF92CF9340E00E946C0A80E05E
:101510000E94500A80E00E94500A882E912CB12C23
:10152000A12C80E00E94500AC82F80E00E94500A3F
:1015300090E0B0E0A0E07C01DD24CC24DC2AC828C7
:10154000D928EA28FB2880E00E94500A299AA7019E
:101550009601582BCA01B901CF91FF90EF90DF900F
:10156000CF90BF90AF909F908F900895CF93DF93CF
:1015700040E00E946C0A80E00E94500A80E00E94D5
:10158000500AC82FD0E080E00E94500A299A9E019C
:10159000382BC901DF91CF91089540E00E946C0A79
:1015A00080E00E94500A80E00E94500A299A089523
:1015B0008F929F92AF92BF92CF92DF92EF92FF9263
:1015C0000F931F93CF93DF93EC014A015B017901E5
:1015D000BC0190E080E07068806340E80E946C0A83
:1015E000C501B4010E94570AC701B8010E94570AF9
:1015F000299ACE0108969F70DF91CF911F910F918C
:10160000FF90EF90DF90CF90BF90AF909F908F9022
:101610000895CF92DF92EF92FF92CF93DF93EC0188
:101620006A017B01BC0190E080E07068806340E863
:101630000E946C0AC701B6010E94570A299ACE017E
:1016400004969F70DF91CF91FF90EF90DF90CF9045
:101650000895CF92DF92EF92FF9269017A0140E8FC
:101660000E946C0AC701B6010E94570A299AFF908E
:10167000EF90DF90CF900895CF93DF93D42FC52FB5
:1016800040E80E946C0A8D2F0E94500A8C2F0E9405
:10169000500A299ADF91CF910895CF93C42F40E843
:1016A0000E946C0A8C2F0E94500A299ACF910895AB
:1016B0000F931F93CF93DF93EC0168EF70E280E309
:1016C00090E00E94B60A8C010F3F8FE0180709F0E6
:1016D00041C021E030E040E050E060E270E280E3B1
:1016E00090E00E94290B20E030E0A90168EF70E251
:1016F00080E390E00E94290B20E030E0A9016CEF2C
:1017000070E280E390E00E94290B20E030E0A90124
:1017100060E071E280E390E00E94290B47E060E71F
:1017200070E280E390E00E944D0B40E060E270E2E6
:1017300080E390E00E944D0B64E670E080E090E072
:101740000E941E0AD0E0C0E0CE01DF91CF911F9130
:101750000F9108956CEF70E280E390E00E94B60A6A
:101760000C171D0709F0A9CFEFCF0F931F93CF934D
:10177000DF93CDB7DEB7C058D1090FB6F894DEBFFE
:101780000FBECDBF9E0129573F4FF90141915191A5
:101790009F0160E870E08E010F5F1F4FC8010E943B
:1017A0006F15F80101900020E9F73197AF01401B58
:1017B000510BB80182E291E00E94BB08C058DF4F94
:1017C0000FB6F894DEBF0FBECDBFDF91CF911F9152
:1017D0000F9108951F920F920FB60F9211242F931D
:1017E0003F934F935F936F937F938F939F93AF93A9
:1017F000BF93EF93FF9382E291E00E943909FF913A
:10180000EF91BF91AF919F918F917F916F915F9178
:101810004F913F912F910F900FBE0F901F901895F1
:101820001F920F920FB60F9211242F938F939F93B5
:10183000EF93FF93E0913201F09133018081E091C9
:101840003801F091390182FD1BC0908180913B01EC
:101850008F5F8F7320913C01821741F0E0913B0133
:10186000F0E0EE5DFE4F958F80933B01FF91EF918D
:101870009F918F912F910F900FBE0F901F901895F1
:101880008081F4CF1F920F920FB60F9211242F93E5
:101890003F938F939F93AF93BF9380911901909142
:1018A0001A01A0911B01B0911C013091180123E095
:1018B000230F2D3758F50196A11DB11D2093180156
:1018C0008093190190931A01A0931B01B0931C01FE
:1018D00080911D0190911E01A0911F01B0912001E6
:1018E0000196A11DB11D80931D0190931E01A0932F
:1018F0001F01B0932001BF91AF919F918F913F91B4
:101900002F910F900FBE0F901F90189526E8230F70
:101910000296A11DB11DD2CFCF93DF93CDB7DEB715
:101920006C970FB6F894DEBF0FBECDBF789484B528
:10193000826084BD84B5816084BD85B5826085BDCB
:1019400085B5816085BD80916E00816080936E0059
:10195000109281008091810082608093810080914B
:1019600081008160809381008091800081608093FC
:1019700080008091B10084608093B1008091B000BC
:1019800081608093B00080917A00846080937A00B7
:1019900080917A00826080937A0080917A008160E1
:1019A00080937A0080917A00806880937A00109208
:1019B000C100E0913201F091330182E08083E09137
:1019C0002E01F0912F011082E0913001F091310150
:1019D00080E1808310923A01E0913601F091370165
:1019E00086E08083E0913401F0913501808180614F
:1019F0008083E0913401F09135018081886080839B
:101A0000E0913401F0913501808180688083E0911C
:101A10003401F091350180818F7D808385E292E0F1
:101A20009F938F930E94B50B299A289A2A9A62E075
:101A300087E00E94C80961E088E00E94C80961E06F
:101A400089E00E94C80961E08AE00E94C80961E05B
:101A500083E00E94C8091FB7F8940F900F908091FF
:101A60002101811149C08EEA90E0FC0124914AE9EC
:101A700050E0FA013491E22FF0E0EE0FFF1FEA5739
:101A8000FF4FA591B4912C91322321F5ECE7F0E0C2
:101A90002491FA014491FC0194919923D9F02223D5
:101AA00059F0233009F48AC008F07DC0213009F4D0
:101AB0008BC0223009F48CC0E92FF0E0EE0FFF1F3D
:101AC000E859FF4FA591B4918FB7F8949C91492B99
:101AD0004C938FBF61E08AE00E94C8098CB5806199
:101AE0008CBD8CB580648CBD61E08DE00E94C8091E
:101AF00061E08BE00E94C809809121018F5F809393
:101B000021011FBF80E58CBD81E08DBD64E170E0E7
:101B100080E090E00E941E0A289866E070E080E075
:101B200090E00E941E0A289A65E170E080E090E053
:101B30000E941E0A299880E00E94500A80E00E94BC
:101B4000500A80E00E94500A299A68E270E080E022
:101B500090E00E941E0A10E0B7ECEB2EB1E0FB2EE5
:101B60000CE8C02E01E0D02E60E070E280E390E04F
:101B70000E94CD0A8C3709F43FC01F5F1A3FA8F1BD
:101B80001F928F931F921F93FF92EF920E94B50BAB
:101B9000DF92CF920E94B50B0FB6F894DEBF0FBE56
:101BA000CDBF10E0E1CF2730B1F02830D1F02430A4
:101BB00009F082CF809180008F7D03C080918000EA
:101BC0008F778093800078CF84B58F7784BD74CF72
:101BD00084B58F7DFBCF8091B0008F778093B0006C
:101BE0006BCF8091B0008F7DF9CF61E070E080E035
:101BF00090E00E941E0AB8CF10E0F6E3EF2EF1E06D
:101C0000FF2EABEFCA2EA0E0DA2E60E270E280E396
:101C100090E00E94CD0A8823E9F01F5F1A3F98F0F8
:101C20001F928F931F921F93FF92EF920E94B50B0A
:101C3000DF92CF920E94B50B0FB6F894DEBF0FBEB5
:101C4000CDBF10E0E2CF61E070E080E090E00E9464
:101C50001E0ADBCF60E070E08CE090E00E947B0A1F
:101C6000BB27A92F982F872F282F8131F9F0682FB4
:101C700082E191E0243110F085E191E01F9221E1B1
:101C80002F9322E131E03F932F931F926F939F9305
:101C90008F931F926F9388EB90E09F938F930E9496
:101CA000B50B0FB6F894DEBF0FBECDBF20E037E80E
:101CB00043E953E06CE070E280E390E00E94290B7E
:101CC00040E060E770E280E390E00E944D0B40E06E
:101CD00064ED70E280E390E00E944D0B40EE51E035
:101CE00064E370E280E390E00E943C0B42E154E048
:101CF0006CE270E280E390E00E943C0B49E250E02D
:101D000060E370E280E390E00E943C0B48E150E029
:101D100068E370E280E390E00E943C0B43E250E015
:101D20006CE370E280E390E00E943C0B40E850E0FE
:101D300068E470E280E390E00E943C0B49E850E0E8
:101D400060E470E280E390E00E943C0B48E050E0E9
:101D500064E470E280E390E00E943C0B44E050E0D9
:101D60006CE470E280E390E00E943C0B45E050E0C0
:101D700060E570E280E390E00E943C0B40E064E6A6
:101D800070E280E390E00E944D0B41E06CE670E26F
:101D900080E390E00E944D0B6CE970E280E390E0FC
:101DA0000E94B60AAC015F7E6CE970E280E390E0CD
:101DB0000E943C0B40E068E670E280E390E00E9405
:101DC0004D0B40E060E670E280E390E00E944D0B36
:101DD00042E064E071E280E390E00E944D0B41E05C
:101DE00068E071E280E390E00E944D0B40E060E823
:101DF00070E280E390E00E944D0B20E030E0A9010A
:101E00006CEC70E280E390E00E94290B40E064E813
:101E100070E280E390E00E944D0B40E650E068E8FD
:101E200070E280E390E00E943C0B41E06CE870E2DD
:101E300080E390E00E944D0B20E030E040E052E073
:101E400060E070E080E390E00E94290B27E030E042
:101E500040E056E264E070E080E390E00E94290BED
:101E600020E030E0A90168E070E080E390E00E94AB
:101E7000290B22E030E040E050E064E570E280E3CE
:101E800090E00E94290B6CE970E280E390E00E94F0
:101E9000B60AAC0150686CE970E280E390E00E9401
:101EA0003C0B47E060E770E280E390E00E944D0B5E
:101EB0004AEF50E060ED70E280E390E00E943C0B5E
:101EC00040E864ED70E280E390E00E944D0B20E07A
:101ED00030E041E050E060E571E280E390E00E9494
:101EE000290B20E030E0A90164E571E280E390E095
:101EF0000E94290B20E030E0A90168E571E280E34F
:101F000090E00E94290B20E030E0A9016CE571E22D
:101F100080E390E00E94290B20E030E041E050E0B7
:101F200060E671E280E390E00E94290B20E030E05F
:101F3000A90164E671E280E390E00E94290B40E091
:101F400068E071E280E390E00E944D0B8E010B5E31
:101F50001F4F64E271E280E390E00E947B0A9C875D
:101F60008B877A8369836CE171E280E390E00E9461
:101F70007B0A9E878D877C836B836CE871E280E3AC
:101F800090E00E947B0A988B8F877E836D8360E947
:101F900071E280E390E00E947B0A9A8B898B7887BC
:101FA0006F836CE671E280E390E00E94B60A9C8B3E
:101FB0008B8B60E271E280E390E00E94B60A9A8720
:101FC0008987FE013B96DE01119680E091E0219128
:101FD000319137FD05C02D913C91119737FF892B29
:101FE000990F12960E171F0791F78111B2CF1F920A
:101FF00081E18F9382E191E09F938F938FE092E054
:102000009F938F930E94B50B6CEF70E280E390E09A
:102010000E94B60A7C0181E091E19F938F930E9418
:10202000B50B8FEF8093EB011092EA0180E880936B
:10203000E9011092E70181E08093E80180E09FE0F0
:10204000A0E0B0E08093D7019093D801A093D9018C
:10205000B093DA0180E390E0A0E0B0E08093DB0190
:102060009093DC01A093DD01B093DE0180E094E069
:10207000A0E0B0E08093CF019093D001A093D10174
:10208000B093D20180EE9FEFAFEFBFEF8093D3010B
:102090009093D401A093D501B093D60182E390E050
:1020A000A0E0B0E08093DF019093E001A093E10114
:1020B000B093E20180E190E0A0E0B0E08093E30122
:1020C0009093E401A093E501B093E60189EF90E1DC
:1020D0009F938F930E94B50B8CED90E19F938F930C
:1020E0000E94B50B1092C2011092C10180EE91E0E6
:1020F0009093C0018093BF011092CB011092CC014C
:102100001092CD011092CE0184E591E0A0E0B0E004
:102110008093C7019093C801A093C901B093CA01ED
:102120008093C3019093C401A093C501B093C601ED
:1021300000E010E0980142E25FEF6FEF7FEFC70130
:102140000E94D80A8C010FB6F894DEBF0FBECDBF37
:102150005CE2852E52E0952E6CE7462E6EE0562E00
:10216000612C712C68EF70E280E390E00E94B60A67
:102170006801C81AD90AC6019F704CEFC42E4FE0FF
:10218000D42EC81AD90AF12CE12C4C145D046E042B
:102190007F0410F473016201B80190E080E0706880
:1021A000806340E80E946C0A16010C0D1D1D1F7013
:1021B0004C185D086E087F085401C114D104E10475
:1021C000F10469F0F50184910E94500AFFEFAF1A03
:1021D000BF0A21E0C21AD108E108F108EECF820C53
:1021E000931C299AA8016CEF70E280E390E00E94B2
:1021F0003C0BC8010E94580B8C014114510461042E
:10220000710409F0AFCF0E94580B00E010E0980174
:1022100043E25FEF6FEF7FEF0E94D80A8C01AC01C1
:102220006CEF70E280E390E00E943C0BC8010E94DA
:10223000580B8C01BC01645071097F7090E080E004
:1022400070588F4C9F4F0E947B0A83ED90E19F93C3
:102250008F930E94B50B85EA90E19F938F930E9424
:10226000B50B0F900F900F900F9030E1432E512C33
:10227000612C712CC8010E94580B40E05FEF6FEF9A
:102280007FEF0E94090B40E050E060E072E00E94A6
:10229000090B47E050E060E076E20E94090B40E164
:1022A00050E060E07EE00E94090B49E050E060E011
:1022B0007FE10E94090B40E050E060E070E40E9482
:1022C000090B40EF57E068EF7EE40E94090B40E005
:1022D00050E060E071E20E94090B2091EB01409117
:1022E000E90150E070E060E07460622B2091EA0147
:1022F000522B0E94090B4091E70150E070E060E032
:1023000070610E94090BC090CF01D090D001E09085
:10231000D101F090D2018090D7019090D801A09087
:10232000D901B090DA014091DF015091E0015F7175
:1023300070E060E07D600E94090B42E050E060E0E8
:102340007FE10E94090BB501A4012FE0440F551F46
:10235000661F771F2A95D1F7442750787F7797011A
:102360008601222733273064402B512B622B732B9D
:102370000E94090B40E050E060E071E20E94090B0E
:102380001C0181143FE09306A104B1040CF00DC2BE
:10239000C501B401A30192010E9486185095409591
:1023A000309521953F4F4F4F5F4F890100511F4F8F
:1023B000C11444E0D406E104F1040CF002C2C701E8
:1023C000B601A30192010E94861850954095309560
:1023D00021953F4F4F4F5F4F205C3F4F200F311FE4
:1023E0005AE0529FC001539F900D112460E371E0A9
:1023F0000E9450180AE010E0061B170B17FF02C0DE
:1024000001E010E040E050E068EC74E0C1010E949F
:10241000090B34E0000F111F3A95E1F7A80170E0B5
:1024200060E07E600E94090B43E050E060E07FE1E5
:102430000E94090B40E054E060E877E40E94090B39
:102440008C01C501B401A30192010E94861844E0E9
:10245000220F331F4A95E1F74901B12CA12C5FE00F
:10246000880C991CAA1CBB1C5A95D1F7C701B60150
:10247000A30192010E94861864E0220F331F6A951F
:10248000E1F7A90170E060E07064482959296A29E0
:102490007B29C8010E94090B40E050E060E071E236
:1024A0000E94090B4FEF5FEF6FEF74E00E94090B82
:1024B0004FEF50E060E070E10E94090B41E050E016
:1024C00060E07FE10E94090B4091CB015091CC016B
:1024D0006091CD017091CE016F73772771600E947A
:1024E000090BC090C701D090C801E090C901F090DD
:1024F000CA014601570179E0880C991CAA1CBB1C33
:102500007A95D1F72091C3013091C4014091C50162
:102510005091C6012D8B3E8B4F8B588F31704427C5
:102520005527298F3A8F4B8F5C8FB501A401442723
:102530005E7F67707727098D1A8D2B8D3C8D286201
:102540003760402B512B622B732B0E94090B882480
:10255000E89490F833E0A322BB24498D5A8D6B8D0B
:102560007C8D60617860482959296A297B290E94FD
:10257000090B46E25FEF6FEF7FEF0E94090B8C01C2
:10258000BC0190E080E07068806340E80E946C0AC3
:1025900067E27FEF8FEF9FEF0E94570A7601DD24FD
:1025A000CC24C701B60196958795779567950E94CB
:1025B000570ACD88DE88EF88F88CC6017727662712
:1025C00096958795779567950E94570A299A78017D
:1025D0002CE0E20EF11C6091C1017091C20190E00B
:1025E00080E0CB017727662728E631E040E050E025
:1025F0000E94641889019A0149E25FEF6FEF7FEF53
:10260000C7019F700E94D80A8C01C090C301D0906E
:10261000C401E090C501F090C601F094E094D0941C
:10262000C094C11CD11CE11CF11CF694E794D79412
:10263000C7947601DD24CC248090C7019090C80116
:10264000A090C901B090CA01B094A09490948094D5
:10265000811C911CA11CB11CB694A79497948794DB
:10266000540199248824B80190E080E07068806368
:1026700040E80E946C0A67E27FEF8FEF9FEF0E94B5
:10268000570AC501B4010E94570AC701B6010E944A
:10269000570A299AC8010C964AE25FEF6FEF7FEF65
:1026A0009F700E94090BFC012091C3013091C4016D
:1026B0004091C5015091C601A8EFBFEF0E94A81834
:1026C0006B017C0134E0D30EE11CF11CEE24FF24ED
:1026D0006894F6F82091C7013091C8014091C90172
:1026E0005091CA010E94A818AB01BC01515F6F4F05
:1026F0007F4FAFE0440F551F661F771FAA95D1F794
:10270000442750787F734C295D296E297F29CF019A
:102710000E94090B40E050E060E071E20E94090B6A
:102720002091C1013091C2012115310509F062C02B
:102730002091BF013091C0012115310509F44DC030
:10274000215031093093C0012093BF0140E050E097
:10275000BA010E94090B41E05FEF6FEF7FEF0E942B
:10276000090B8C01AC016CEF70E280E390E00E94F9
:102770003C0B8091EB018F5F8093EB018091EA012C
:1027800081508093EA018091E9018E5F8093E90195
:102790008091E7019091E801992309F4C6C08F3F29
:1027A000C9F18F5F8093E70137C09501840184E010
:1027B00035952795179507958A95D1F7005F1109EB
:1027C000F7CDA7019601B4E0559547953795279524
:1027D000BA95D1F72054310901CE44EA51E0509323
:1027E000C0014093BF01E1E0F0E0F093C201E0934B
:1027F000C101ACCF2736F1E03F0738F42F5F3F4FE0
:102800003093C2012093C101A1CF1092C201109256
:10281000C1019CCF1092E8018091E3019091E40105
:10282000A091E501B091E6014091DF015091E001F6
:102830006091E1017091E201480F591F6A1F7B1FEF
:10284000B7FFA0C0413A5105610571050CF476C08F
:102850004093DF015093E0016093E1017093E20146
:10286000C090DB01D090DC01E090DD01F090DE0152
:102870008091DF019091E001A091E101B091E2012E
:102880004091D7015091D8016091D9017091DA013E
:1028900046015701840E951EA61EB71EF7FEA3C063
:1028A000481B590B6A0B7B0B4C0D5D1D6E1D7F1D6C
:1028B00014161506160617060CF072C08092D70182
:1028C0009092D801A092D901B092DA014091D3013F
:1028D0005091D4016091D5017091D601C090CF0183
:1028E000D090D001E090D101F090D2014A015B017B
:1028F0008C0C9D1CAE1CBF1C77FFADC0C81AD90A3A
:10290000EA0AFB0AC40ED51EE61EF71E1C141D049F
:102910001E041F040CF07DC08092CF019092D00164
:10292000A092D101B092D201A5CC813810F0815093
:1029300039CFCC24C394C092E8016ECF20E4C22EDC
:10294000DD24D394E12CF12CC41AD50AE60AF70A47
:10295000B701A6014093DF015093E0016093E101CC
:102960007093E201B095A095909581959F4FAF4FE0
:10297000BF4F8093E3019093E401A093E501B093EE
:10298000E6016ECF4093DF015093E0016093E101D7
:102990007093E201403C5240610571051CF760CF25
:1029A000AC01BD01481959096A097B09480F591F33
:1029B0006A1F7B1F4093D7015093D8016093D901C0
:1029C0007093DA01F094E094D094C094C11CD11CAF
:1029D000E11CF11CC092DB01D092DC01E092DD0130
:1029E000F092DE0173CF480F591F6A1F7B1F4C0DF9
:1029F0005D1D6E1D7F1D8092D7019092D801A0921F
:102A0000D901B092DA0141155E4161057105D4F634
:102A10005DCF6C017D01C818D908EA08FB088C0D50
:102A20009D1DAE1DBF1D8093CF019093D001A0933B
:102A3000D101B093D20170956095509541955F4F4B
:102A40006F4F7F4F4093D3015093D4016093D501D2
:102A50007093D6010FCC8C0D9D1DAE1DBF1D840F34
:102A6000951FA61FB71F81159840A105B1050CF44D
:102A700053CF8092CF019092D001A092D101B09219
:102A8000D201D9CFE2E2F1E01382128288EE93E024
:102A9000A0E0B0E084839583A683B78384E091E0CF
:102AA0009183808385EC90E09587848784EC90E027
:102AB0009787868780EC90E0918B808B81EC90E00B
:102AC000938B828B82EC90E0958B848B86EC90E0EC
:102AD000978B868B118E128E138E148E0895AEE016
:102AE000B0E0E5E7F5E10C9427188C01FA018EE0DF
:102AF0008C831A83098377FF02C060E070E861501D
:102B000071097E836D83A901BF01CE0101960E94E8
:102B10009B154D815E8157FD0AC02F813885421774
:102B200053070CF49A01020F131FF80110822E961E
:102B3000E4E00C944318ABE0B0E0E1EAF5E10C947A
:102B400019187C013B018A01FC01178216828381DE
:102B500081FFC8C1CE0101965C01F7019381F301A9
:102B600093FD859193FF81913F01882309F453C11F
:102B7000853239F493FD859193FF81913F01853230
:102B800029F4B70190E00E948B17E7CF912C212CFC
:102B9000312CFFE1F31538F08B3211F190F48032D3
:102BA00009F1833229F137FC3CC020ED280F2A308F
:102BB00050F536FE20C08AE0989E200D1124922EFA
:102BC00006C08D3291F0803371F7689430F8F301CC
:102BD00093FD859193FF81913F018111DACF21C04F
:102BE000689431F8689432F8F2CF689433F8EFCFF4
:102BF000689434F8ECCFEAE02E9E200D1124222EAA
:102C0000689435F8E4CF8E3229F436FC04C1689418
:102C100036F8DDCF8C3619F4689437F8D8CF88367B
:102C2000B1F2982F9F7D95549330E0F08336A1F157
:102C30008337C1F1833509F063C02801F2E04F0EFC
:102C4000511CF801C080D180692D70E036FC02C0B3
:102C50006FEF7FEFC6010E9475174C01689437F83B
:102C600082010AC00C5F1F4FFFE3F983882483941D
:102C7000912C6501E89437F833FE2DC0522C811455
:102C8000910471F5552009F468CFB70180E290E016
:102C90000E948B175A94F6CFF801808189830E5FCA
:102CA0001F4FE4CF2801F2E04F0E511CF801C08005
:102CB000D180692D70E036FC02C06FEF7FEFC60156
:102CC0000E9480174C018201D5CFB70180E290E0CD
:102CD0000E948B172A942814190409F0B0F7CECF5C
:102CE000F60137FC859137FE81916F01B70190E0C5
:102CF0000E948B1751105A94F1E08F1A9108BFCFA0
:102D0000843619F0893609F077C0F80137FE6BC0B8
:102D100060817181828193810C5F1F4FF32DFF765B
:102D20003F2E97FF09C090958095709561957F4FD4
:102D30008F4F9F4F689437F82AE030E0A5010E943A
:102D4000BB17C82ECA188C2C432C36FE0CC0E89436
:102D500040F8C91440F434FE05C032FC03C0F32D22
:102D6000FE7E4F2E892C44FE95C0FE01EC0DF11D18
:102D70008081803309F087C0242D297E422E842D46
:102D80008870582E43FC95C040FE8FC09C2C821446
:102D900018F42C0C922C981844FE91C0B70180E3D3
:102DA00090E00E948B1742FE09C088E790E041FE48
:102DB00002C088E590E0B7010E948B17C91408F49F
:102DC0008AC0CA94D12C9FEFC91AD90ACA0CDB1C3D
:102DD000F60182916F01B70190E00E948B17AC144D
:102DE000BD04B1F74FCF60817181072E000C880BB5
:102DF000990B0E5F1F4F92CFD32CE894D4F82AE0A2
:102E000030E0853739F1232D297FD22E8F3601F11D
:102E100048F48835A9F0F701868197812B96E2E185
:102E20000C943518803749F08837A9F7D4FE02C0D2
:102E30006894D2F820E130E00DC06894D4F8F6CF61
:102E400034FE03C0822F8660D82E20E132E002C01B
:102E500028E030E0F801D7FE0FC0608171818281E7
:102E600093810C5F1F4FA5010E94BB17C82ECA1883
:102E70003D2CE89437F867CF6081718190E080E065
:102E80000E5F1F4FF0CF42FC02C0839478CF839433
:102E9000839475CF842D867809F471CFF6CFB7016E
:102EA00080E290E00E948B1783948214C0F3512C2F
:102EB00073CF522C5818821408F46ECFF8CF842D9B
:102EC000867809F47BCF8BE241FE80E247FC8DE2FD
:102ED000B70190E071CFB70180E390E00E948B17BB
:102EE0009A946CCF8FEF9FEF99CFFC0105906150C2
:102EF00070400110D8F7809590958E0F9F1F089510
:102F0000FC016150704001900110D8F780959095B8
:102F10008E0F9F1F08950F931F93CF93DF93182F4A
:102F2000092FEB018B8181FD09C01FEF0FEF812F6E
:102F3000902FDF91CF911F910F91089582FF14C0C0
:102F40002E813F818C819D81281739073CF4E881CF
:102F5000F981CF0101969983888310838E819F81A7
:102F600001969F838E83E3CFE885F985812F0995AC
:102F7000892BA1F3DACFFA01AA27283051F12031A9
:102F800081F1E8946F936E7F6E5F7F4F8F4F9F4FFD
:102F9000AF4FB1E03ED0B4E03CD0670F781F891F3F
:102FA0009A1FA11D680F791F8A1F911DA11D6A0F0D
:102FB000711D811D911DA11D20D009F468943F91C0
:102FC0002AE0269F11243019305D3193DEF6CF01BF
:102FD0000895462F4770405D4193B3E00FD0C9F785
:102FE000F6CF462F4F70405D4A3318F0495D31FDF2
:102FF0004052419302D0A9F7EACFB4E0A695979545
:10300000879577956795BA95C9F70097610571051A
:1030100008959B01AC010A2E069457954795379564
:103020002795BA95C9F7620F731F841F951FA01DBE
:1030300008952F923F924F925F926F927F928F925C
:103040009F92AF92BF92CF92DF92EF92FF920F9337
:103050001F93CF93DF93CDB7DEB7CA1BDB0B0FB641
:10306000F894DEBF0FBECDBF09942A8839884888FE
:103070005F846E847D848C849B84AA84B984C88494
:10308000DF80EE80FD800C811B81AA81B981CE0F8B
:10309000D11D0FB6F894DEBF0FBECDBFED01089570
:1030A000AA1BBB1B51E107C0AA1FBB1FA617B7076E
:1030B00010F0A61BB70B881F991F5A95A9F780958A
:1030C0009095BC01CD010895A1E21A2EAA1BBB1B4D
:1030D000FD010DC0AA1FBB1FEE1FFF1FA217B307E4
:1030E000E407F50720F0A21BB30BE40BF50B661FFA
:1030F000771F881F991F1A9469F7609570958095BE
:1031000090959B01AC01BD01CF010895052E97FB61
:103110001EF400940E949D1857FD07D00E94641869
:1031200007FC03D04EF40C949D18509540953095B3
:1031300021953F4F4F4F5F4F089590958095709523
:1031400061957F4F8F4F9F4F0895B7FF0C94B31831
:103150000E94B318821B930B0895EE0FFF1F05907A
:10316000F491E02D09940E94BE18A59F900DB49F84
:10317000900DA49F800D911D11240895A29FB00170
:10318000B39FC001A39F700D811D1124911DB29F9B
:0E319000700D811D1124911D0895F894FFCF3C
:10319E00000000005B09BB08E808A8091909F70838
:0831AE000B09465400425400D5
:00000001FF
